:1000000010C178C229C128C127C126C139C124C164
:100010006AC122C121C120C11FC11EC11DC13BC473
:1000200057C400004B032A04C7044505B305110655
:100030006506B206FA063E077C07B807F0072708F0
:100040005A088C08BB08E908170942096C09940989
:10005000BC09E4090A0A2E0A530A770A9A0ABC0A5A
:10006000DD0AFE0A1F0B3F0B5E0B7D0B9C0BBA0BD0
:10007000D80BF50B120C2F0C4B0C670C820C9E0C42
:10008000B90CD40CEE0C080D230D3C0D560D6F0D64
:10009000880DA10DBA0DD20DEA0D020E1B0E320E07
:1000A0004A0E610E790E900EA70EBE0ED40EEB0E08
:1000B000020F180F2E0F440F5B0F710F860F9C0F4E
:1000C000B20FC70FDD0FF20F07101D1032104710CF
:1000D0005C10701086109A10AF10C310D810ED107D
:1000E000011115112A113E11531167117B118F1146
:1000F000A311B711CB11DF11F31107121B122F122D
:10010000421257126A127E129212A612B912CD1220
:10011000E012F41208131B132F13421356136A1321
:100120007D139113A513B913CC13E013F313071424
:100130001B142E144214551469147D149114A41424
:10014000B814CC14E014F41407151B152F1543151F
:1001500057156B1580159415A815BC15D015E51508
:10016000F9150D16221636164B16601674168916DA
:100170009E16B316C816DD16F21607171C1732178F
:1001800047175C17731788179E17B417CA17E0171D
:10019000F6170D1823183A18511868187E18951874
:1001A000AD18C518DC18F4180C1924193C19551988
:1001B0006D198719A019B919D219EC19061A201A44
:1001C0003B1A551A711A8C1AA71AC31ADF1AFC1A8D
:1001D000191B361B541B731B911BB01BCF1BEF1B32
:1001E000101C311C521C741C971CBB1CE01C051DF0
:1001F0002A1D521D7A1DA21DCC1DF71D251E531E42
:10020000821EB31EE71E1E1F561F911FCF1F1420F4
:100210005B20A820FC205A21C7214422E122BC23D4
:10022000102711241FBECFE5D1E0DEBFCDBF10E007
:10023000A0E6B0E0E6E3FAE002C005900D92A63633
:10024000B107D9F710E0A6E6B0E001C01D92A53ACB
:10025000B107E1F7FCD1EDC3D3CEDF9A0895DF9863
:1002600008952CB123602CB99BBD8ABD8EB58260E8
:100270008EBD60937A0008958EB582608EBD08951C
:100280001F920F920FB60F9211242F933F934F930B
:100290005F936F937F938F939F93AF93BF93EF93EE
:1002A000FF9380917A00813061F41EBC8CB59DB5BE
:1002B000209163003091640062E0820F931FD1DFD0
:1002C00001C0CBDFFF91EF91BF91AF919F918F91D3
:1002D0007F916F915F914F913F912F910F900FBE42
:1002E0000F901F9018951F920F920FB60F92112426
:1002F0002F933F934F935F936F937F938F939F932E
:10030000AF93BF93EF93FF93AADF1EBC10927100CF
:10031000FF91EF91BF91AF919F918F917F916F91DD
:100320005F914F913F912F910F900FBE0F901F90B3
:10033000189580917500982F9F5F90937500813874
:10034000E0F080917600909177008D34974218F01C
:1003500081B7815009C08091760090917700843DEB
:10036000964230F481B78F5F81BF1092700003C056
:1003700081E080937000109275000895CF92DF9213
:10038000EF92FF920F931F93009168001091690004
:1003900020916A0030916B00012B022B032B09F492
:1003A00059C000916C0010916D0020916E00309149
:1003B0006F00C0906C00D0906D00E0906E00F090E7
:1003C0006F00DC01CB018C199D09AE09BF0945E026
:1003D000B595A795979587954A95D1F7080F191F59
:1003E0002A1F3B1F00936C0010936D0020936E003A
:1003F00030936F00409168005091690060916A00ED
:1004000070916B0080916C0090916D00A0916E00D6
:10041000B0916F00009168001091690020916A000E
:1004200030916B00801B910BA20BB30BE5E0B595EF
:10043000A79597958795EA95D1F7480F591F6A1F99
:100440007B1F409368005093690060936A0070932B
:100450006B0010C060936C0070936D0080936E0011
:1004600090936F00609368007093690080936A00B6
:1004700090936B00409168005091690060916A0010
:1004800070916B00CA011F910F91FF90EF90DF9068
:10049000CF90089585B7836085BF8BB780648BBF8D
:1004A00010927200089581E090917200911180E0A5
:1004B0008093720085B791E0892785BF0895809168
:1004C0006000813029F4209161003091620010C0F9
:1004D0008091670090916600891730F48F5F809358
:1004E000670020E030E004C01092670028E233E2A9
:1004F000C90108951F920F920FB60F9211242F93E6
:100500003F934F935F936F937F938F939F93AF939B
:10051000BF93CF93DF93EF93FF931EBC8091720044
:10052000811122C09CDE1EBC6CB57DB580E090E0E0
:1005300025DF90937700809376008CB59DB59093DE
:100540007400809373001DBC1CBCB9DF90936400E1
:1005500080936300809178009091790061E0969596
:1005600087957FDEE6DE1CC0CCB5DDB585DE8091EB
:100570007800909179009E013327821B930B97FF9F
:1005800003C0919581959109059734F08091780089
:1005900090917900892B21F4309379002093780091
:1005A00082DF81E080937100FF91EF91DF91CF9125
:1005B000BF91AF919F918F917F916F915F914F917B
:1005C0003F912F910F900FBE0F901F90189598B3E9
:1005D00021E030E0082E01C0220F0A94EAF7922BA6
:1005E00098BB089598B321E030E0082E01C0220F97
:1005F0000A94EAF72095292328BB089580E090E02B
:1006000002D28F3FE1F081BF1AC081E0E0DF2FEF1F
:1006100082E597E0215080409040E1F700C0000063
:1006200081E0E0DF80E0D3DF2FEF82E597E021502B
:1006300080409040E1F700C0000080E0D3DF80916F
:100640007000882311F361B780E090E0E4C1CF939C
:10065000DF931F92CDB7DEB714BE88E10FB6F894D2
:1006600081BD11BC0FBE87B3836087BBC29AD79A86
:100670001BBA10DF80E2CCD0789480E292E0FC01DB
:10068000259134913093620020936100D09AD89ADA
:1006900022E027B924E826B920E123B9FC0105911D
:1006A0001491EE24EA94F12CEDD0882309F493C040
:1006B000D6D0813081F48983D2D0F701E81BF109CB
:1006C000EE0FFF1FEE5DFF4F2591349130936200D6
:1006D000209361000CC0823071F41093620000938B
:1006E0006100109267008983BAD080936600998177
:1006F0009093600070C0833091F4B1D0B82EA12CDB
:10070000B0926200A0926100C0906100D09062003F
:10071000A6D0C82AD0926200C09261005CC084302A
:1007200059F48091760090917700892F88D080913C
:100730007600909177000CC0853061F4809178004C
:1007400090917900892F7BD08091780090917900E9
:1007500076D041C0863011F481B7FACF873059F492
:100760008091630090916400892F69D0809163002B
:1007700090916400EDCF883059F48091730090918E
:100780007400892F5CD08091730090917400E0CF49
:10079000893051F428E088E190E00FB6F894A895EC
:1007A00081BD0FBE21BDFFCF8A3011F427DF13C0FA
:1007B0008C3089F481E00BDF80E009DF2FEF83EDDF
:1007C00090E3215080409040E1F700C0000081E0BC
:1007D00009DF80E007DF80917100811116C081E0A0
:1007E000F6DEEFEFF0E722E0E150F0402040E1F7E5
:1007F00000C0000081E0F6DE8FEF90E7E2E081507C
:100800009040E040E1F700C0000080E0EBDE4CCF1C
:1008100010927D0010927E0010927B0010927C005E
:100820008093820010927F008AB380658ABBDC9A35
:10083000DE9AD69888EA8DB980EF8EB908959091A6
:100840007C009F5F9F7020917B009217E1F3E92F5E
:10085000F0E0ED57FF4F808390937C0008959091D6
:100860007E0080917D009817D1F380917D008F5F8D
:100870008F7080937D00E0917D00F0E0ED56FF4F9A
:100880008081089520917E0090917D0081E0291360
:1008900001C080E008951F920F920FB60F921124AD
:1008A0008F931092810010928000D698CC9B02C04A
:1008B000CE9BFCCFCE9902C088EF01C088EA8DB9EB
:1008C00080EF8EB98F910F900FBE0F901F901895EB
:1008D0001F920F920FB60F9211242F933F934F93B5
:1008E0005F936F937F938F939F93AF93BF93EF9398
:1008F000FF9380918000909181008230910509F4EE
:1009000048C030F4009769F0019709F06BC024C02B
:100910008430910509F446C0C8F0059709F062C01B
:100920004AC08FB1882331F08FB1869590918200B3
:1009300089130FC0E091A300F091A400309709F053
:100940000995789B45C081E090E044C08FB1882331
:1009500019F088EA8DB92DC090917C0080917B00C0
:10096000981771F080917B008F5F8F7080937B0070
:10097000E0917B00F0E0ED57FF4F80818FB901C01F
:100980001FB882E090E09093810080938000D69A17
:1009900010C083E090E09093810080938000D6980F
:1009A0001FB81EC085E090E0909381008093800086
:1009B000D69880E716C080917E008F5F8F708093FD
:1009C0007E00E0917E008FB1F0E0ED56FF4F808316
:1009D00084E090E090938100809380001FB8D69AC5
:1009E0008EE78EB9FF91EF91BF91AF919F918F915B
:1009F0007F916F915F914F913F912F910F900FBE1B
:100A00000F901F901895E199FECF1FBA8EBBE09A08
:100A100099278DB30895262FE199FECF1CBA1FBAEE
:100A20008EBB2DBB0FB6F894E29AE19A0FBE0196E9
:060A30000895F894FFCFC9
:060A360001282328230023
:00000001FF
