:1000000010C15DC229C128C127C126C139C124C17F
:100010006AC122C121C120C11FC11EC11DC106C4A8
:1000200022C400004B032A04C7044505B30511068A
:100030006506B206FA063E077C07B807F0072708F0
:100040005A088C08BB08E908170942096C09940989
:10005000BC09E4090A0A2E0A530A770A9A0ABC0A5A
:10006000DD0AFE0A1F0B3F0B5E0B7D0B9C0BBA0BD0
:10007000D80BF50B120C2F0C4B0C670C820C9E0C42
:10008000B90CD40CEE0C080D230D3C0D560D6F0D64
:10009000880DA10DBA0DD20DEA0D020E1B0E320E07
:1000A0004A0E610E790E900EA70EBE0ED40EEB0E08
:1000B000020F180F2E0F440F5B0F710F860F9C0F4E
:1000C000B20FC70FDD0FF20F07101D1032104710CF
:1000D0005C10701086109A10AF10C310D810ED107D
:1000E000011115112A113E11531167117B118F1146
:1000F000A311B711CB11DF11F31107121B122F122D
:10010000421257126A127E129212A612B912CD1220
:10011000E012F41208131B132F13421356136A1321
:100120007D139113A513B913CC13E013F313071424
:100130001B142E144214551469147D149114A41424
:10014000B814CC14E014F41407151B152F1543151F
:1001500057156B1580159415A815BC15D015E51508
:10016000F9150D16221636164B16601674168916DA
:100170009E16B316C816DD16F21607171C1732178F
:1001800047175C17731788179E17B417CA17E0171D
:10019000F6170D1823183A18511868187E18951874
:1001A000AD18C518DC18F4180C1924193C19551988
:1001B0006D198719A019B919D219EC19061A201A44
:1001C0003B1A551A711A8C1AA71AC31ADF1AFC1A8D
:1001D000191B361B541B731B911BB01BCF1BEF1B32
:1001E000101C311C521C741C971CBB1CE01C051DF0
:1001F0002A1D521D7A1DA21DCC1DF71D251E531E42
:10020000821EB31EE71E1E1F561F911FCF1F1420F4
:100210005B20A820FC205A21C7214422E122BC23D4
:10022000102711241FBECFE5D1E0DEBFCDBF10E007
:10023000A0E6B0E0ECECF9E002C005900D92A43627
:10024000B107D9F710E0A4E6B0E001C01D92A13AD1
:10025000B107E1F7E4D1B8C3D3CEDF9A0895DF98B0
:1002600008952CB123602CB99BBD8ABD8EB58260E8
:100270008EBD6093760008958EB582608EBD089520
:100280001F920F920FB60F9211242F933F934F930B
:100290005F936F937F938F939F93AF93BF93EF93EE
:1002A000FF9380917600813061F41EBC8CB59DB5C2
:1002B000209162003091630062E0820F931FD1DFD2
:1002C00001C0CBDFFF91EF91BF91AF919F918F91D3
:1002D0007F916F915F914F913F912F910F900FBE42
:1002E0000F901F9018951F920F920FB60F92112426
:1002F0002F933F934F935F936F937F938F939F932E
:10030000AF93BF93EF93FF93AADF1EBC10926D00D3
:10031000FF91EF91BF91AF919F918F917F916F91DD
:100320005F914F913F912F910F900FBE0F901F90B3
:10033000189580917100982F9F5F9093710081387C
:10034000E0F080917200909173008D34974218F024
:1003500081B7815009C08091720090917300843DF3
:10036000964230F481B78F5F81BF10926C0003C05A
:1003700081E080936C00109271000895CF92DF921B
:10038000EF92FF920F931F9300916400109165000C
:100390002091660030916700012B022B032B09F49A
:1003A00059C0009168001091690020916A00309155
:1003B0006B00C0906800D0906900E0906A00F090F7
:1003C0006B00DC01CB018C199D09AE09BF0945E02A
:1003D000B595A795979587954A95D1F7080F191F59
:1003E0002A1F3B1F009368001093690020936A0046
:1003F00030936B00409164005091650060916600FD
:10040000709167008091680090916900A0916A00E6
:10041000B0916B000091640010916500209166001E
:1004200030916700801B910BA20BB30BE5E0B595F3
:10043000A79597958795EA95D1F7480F591F6A1F99
:100440007B1F409364005093650060936600709337
:10045000670010C0609368007093690080936A0021
:1004600090936B00609364007093650080936600C6
:100470009093670040916400509165006091660020
:1004800070916700CA011F910F91FF90EF90DF906C
:10049000CF90089585B7836085BF8BB780648BBF8D
:1004A00010926E00089581E090916E00911180E0AD
:1004B00080936E0085B791E0892785BF08951F92CC
:1004C0000F920FB60F9211242F933F934F935F9388
:1004D0006F937F938F939F93AF93BF93CF93DF934C
:1004E000EF93FF931EBC80916E00811125C0B7DE93
:1004F0001EBC6CB57DB580E090E040DF909373004A
:10050000809372008CB59DB59093700080936F00BE
:100510001DBC1CBC809174009091750061E09695A3
:1005200087959FDE06DF8091600090916100909337
:100530006300809362001CC0CCB5DDB59DDE809168
:100540007400909175009E013327821B930B97FFD7
:1005500003C0919581959109059734F080917400BD
:1005600090917500892B21F43093750020937400CD
:100570009ADF81E080936D00FF91EF91DF91CF9141
:10058000BF91AF919F918F917F916F915F914F91AB
:100590003F912F910F900FBE0F901F90189598B319
:1005A00021E030E0082E01C0220F0A94EAF7922BD6
:1005B00098BB089598B321E030E0082E01C0220FC7
:1005C0000A94EAF72095292328BB089580E090E05B
:1005D000E5D18F3FE1F081BF1AC081E0E0DF2FEF6E
:1005E00082E597E0215080409040E1F700C0000094
:1005F00081E0E0DF80E0D3DF2FEF82E597E021505C
:1006000080409040E1F700C0000080E0D3DF80919F
:100610006C00882311F361B780E090E0C7C114BE7D
:1006200088E10FB6F89481BD11BC0FBE87B383601B
:1006300087BBC29AD79A1BBA2DDF80E2B4D07894D8
:10064000E0E2F2E0859194919093610080936000E4
:10065000D09AD89A82E087B984E886B980E183B9D4
:10066000DCD0882309F482C0C5D0813071F4C2D0B7
:10067000E82FF0E0EE0FFF1FEE5DFF4F85919491A4
:10068000909361008093600071C0833099F4B2D080
:10069000D82F20E0C22FD0936100C093600000915A
:1006A000600010916100A6D0082B109361000093A8
:1006B00060005CC0843059F48091720090917300A6
:1006C000892F88D080917200909173000CC0853082
:1006D00061F48091740090917500892F7BD0809196
:1006E00074009091750076D041C0863011F481B7C6
:1006F000FACF873059F48091620090916300892F7E
:1007000069D08091620090916300EDCF883059F4F8
:1007100080916F0090917000892F5CD080916F0064
:1007200090917000E0CF893051F428E088E190E0AA
:100730000FB6F894A89581BD0FBE21BDFFCF8A30BA
:1007400011F444DF13C08C3089F481E028DF80E0AD
:1007500026DF8FEF93ED20E3815090402040E1F7BA
:1007600000C0000081E026DF80E024DF80916D0082
:10077000811116C081E013DF8FEF90E722E08150F6
:1007800090402040E1F700C0000081E013DF8FEFD0
:1007900090E722E0815090402040E1F700C0000047
:1007A00080E008DF5DCF1092790010927A001092FD
:1007B00077001092780080937E0010927B008AB3BD
:1007C00080658ABBDC9ADE9AD69888EA8DB980EF7C
:1007D0008EB90895909178009F5F9F702091770067
:1007E0009217E1F3E92FF0E0E158FF4F80839093F7
:1007F0007800089590917A00809179009817D1F34C
:10080000809179008F5F8F7080937900E0917900FB
:10081000F0E0E157FF4F8081089520917A00909198
:10082000790081E0291301C080E008951F920F92A2
:100830000FB60F9211248F9310927D0010927C00BE
:10084000D698CC9B02C0CE9BFCCFCE9902C088EF3D
:1008500001C088EA8DB980EF8EB98F910F900FBEDD
:100860000F901F9018951F920F920FB60F921124A0
:100870002F933F934F935F936F937F938F939F93A8
:10088000AF93BF93EF93FF9380917C0090917D0095
:100890008230910509F448C030F4009769F001975F
:1008A00009F06BC024C08430910509F446C0C8F03B
:1008B000059709F062C04AC08FB1882331F08FB12B
:1008C000869590917E0089130FC0E0919F00F09172
:1008D000A000309709F00995789B45C081E090E031
:1008E00044C08FB1882319F088EA8DB92DC090914A
:1008F000780080917700981771F0809177008F5F72
:100900008F7080937700E0917700F0E0E158FF4F1F
:1009100080818FB901C01FB882E090E090937D0084
:1009200080937C00D69A10C083E090E090937D0085
:1009300080937C00D6981FB81EC085E090E090930D
:100940007D0080937C00D69880E716C080917A0065
:100950008F5F8F7080937A00E0917A008FB1F0E022
:10096000E157FF4F808384E090E090937D00809377
:100970007C001FB8D69A8EE78EB9FF91EF91BF9198
:10098000AF919F918F917F916F915F914F913F9127
:100990002F910F900FBE0F901F901895E199FECFE9
:1009A0001FBA8EBBE09A99278DB30895262FE1993F
:1009B000FECF1CBA1FBA8EBB2DBB0FB6F894E29ABD
:0C09C000E19A0FBE01960895F894FFCF55
:0409CC002823282391
:00000001FF
