:1000000010C0AEC029C028C027C026C03FC024C031
:1000100023C022C021C05EC01FC01EC01DC00AC1B7
:1000200027C111241FBECFE5D1E0DEBFCDBF10E058
:10003000A0E6B0E0E4EBF3E002C005900D92A63636
:10004000B107D9F710E0A6E6B0E001C01D92A137D4
:10005000B107E1F7B0D0ACC1D3CF19BE13BE109237
:100060006700109266000895C09A0895C098089598
:10007000619A80916100909162009BBD8ABD8EB5AE
:1000800088608EBD8EB581608EBD08951F920F92DF
:100090000FB60F9211242F933F934F935F936F935B
:1000A0007F938F939F93AF93BF93EF93FF93DEDF85
:1000B0001EBCFF91EF91BF91AF919F918F917F9166
:1000C0006F915F914F913F912F910F900FBE0F90C5
:1000D0001F9018951F920F920FB60F9211242F9315
:1000E0003F934F935F936F937F938F939F93AF93C0
:1000F000BF93EF93FF93209166003091670040918A
:10010000630050916400C901019690936700809349
:1001100066002417350720F0A7DF9FDFA9DF04C0A2
:100120008739910508F0C198FF91EF91BF91AF9188
:100130009F918F917F916F915F914F913F912F91FF
:100140000F900FBE0F901F90189589B7816089BFDF
:1001500083B7816083BF1092670010926600089594
:100160001F920F920FB60F9211242F933F934F932C
:100170005F936F937F938F939F93AF93BF93EF930F
:10018000FF93C19AE2DFFF91EF91BF91AF919F91F1
:100190008F917F916F915F914F913F912F910F9030
:1001A0000FBE0F901F90189585B7836085BF8BB7E2
:1001B00080648BBF089587B3836087BBC09A2FEF9D
:1001C00080E792E0215080409040E1F700C00000BD
:1001D000C098C19880E690E090936F0080936E0085
:1001E00080E21CD0E1DF789480916000813011F4CE
:1001F000C09A0BC0823019F4C19AC09807C08330EE
:1002000019F4C09AC19A02C0C098C1988091660042
:10021000909167000B9740F329DFE6CFDC98DE98DA
:1002200080936A008AB38F7A8ABB88EA8DB980EF9F
:100230008EB908951F920F920FB60F9211248F93CB
:10024000C19A10926D0010926C00D698CC9B02C09F
:10025000CE9BFCCFCE9902C088EE01C088EB8DB951
:1002600080EF8EB98F910F900FBE0F901F90189551
:100270001F920F920FB60F9211242F933F938F93DB
:100280009F93EF93FF9380916C0090916D0082306B
:10029000910561F130F4009769F0019709F07DC094
:1002A00034C08430910509F44DC048F1059709F038
:1002B00074C051C08FB1882359F02FB1269530E01A
:1002C00080916A00992787FD909528173907D1F406
:1002D000789B03C081E090E004C01092680084E045
:1002E00090E090936D0080936C0053C0DE9883E0A3
:1002F00090E090936D0080936C00D6984CC08FB1C5
:10030000882319F088EA8DB924C0E0916900E230B1
:1003100054F4EE0FFF0BE259FF4F0190F081E02DF6
:1003200080818FB901C01FB8809169008F5F809371
:10033000690082E090E090936D0080936C00D69A03
:10034000DE9A07C085E090E090936D0080936C008A
:10035000D69880E721C084E090E090936D00809370
:100360006C0080916800811107C08FB18093690093
:1003700081E0809368000DC0E0916900E2304CF4A8
:10038000EE0FFF0BE259FF4F0190F081E02D8FB18E
:1003900080831FB8D69A8EE78EB9FF91EF919F9117
:1003A0008F913F912F910F900FBE0F901F90189536
:0403B000F894FFCFEF
:0603B4000488132C010077
:00000001FF
