:1000000010C0ADC029C028C027C026C041C024C030
:1000100023C022C021C060C01FC01EC01DC080C13F
:100020009CC111241FBECFE5D1E0DEBFCDBF10E0E3
:10003000A0E6B0E0E0E9F4E002C005900D92A4363D
:10004000B107D9F710E0A4E6B0E001C01D92A439D1
:10005000B107E1F7D7D01AC2D3CF19BE13BE1092A1
:100060006700109266000895C09ADF9A0895C098BC
:10007000DF980895619A80916000909161009BBD26
:100080008ABD8EB588608EBD8EB581608EBD0895A7
:100090001F920F920FB60F9211242F933F934F93FD
:1000A0005F936F937F938F939F93AF93BF93EF93E0
:1000B000FF93DDDF1EBCFF91EF91BF91AF919F9148
:1000C0008F917F916F915F914F913F912F910F9001
:1000D0000FBE0F901F9018951F920F920FB60F92A0
:1000E00011242F933F934F935F936F937F938F933D
:1000F0009F93AF93BF93EF93FF938091660090918E
:1001000067002091620030916300AC014F5F5F4F48
:1001100050936700409366008217930718F0A4DF9E
:100120009CDFA8DFFF91EF91BF91AF919F918F91DD
:100130007F916F915F914F913F912F910F900FBEE3
:100140000F901F90189512BE89B7816089BF83B741
:10015000816083BF109267001092660008951F921D
:100160000F920FB60F9211242F933F934F935F93EB
:100170006F937F938F939F93AF93BF93EF93FF936F
:1001800076DF1EBCE0DFFF91EF91BF91AF919F91B1
:100190008F917F916F915F914F913F912F910F9030
:1001A0000FBE0F901F901895C19AB29BFECFB299C7
:1001B000FECF1DBC1CBC8EB584608EBDB29BFECF35
:1001C000B299FECF1EBC8CB59DB59093650080930F
:1001D0006400C1980895C19AB29BFECFB299FECF38
:1001E000B29BFECF1DBC1CBC8EB581608EBDB2998A
:1001F000FECF1EBC8CB59DB590939300809392006A
:10020000C198089587B3836087BBD79A1BBAC09AF9
:100210002FEF80E792E0215080409040E1F700C04E
:100220000000C098C1DFD7DF789480E236D0CCE2FE
:10023000D1E006EE10E08CEDE82EF12C68D088239A
:10024000E9F352D0813029F4F0926300E092620029
:10025000F5CF823029F41093630000936200EECF53
:10026000833029F4D0936300C0936200E7CF8430D9
:1002700031F48091650028D0809164000CC08530F5
:10028000E9F68091920090919300892F1DD0809182
:1002900092009091930018D0D1CF10926A001092E2
:1002A0006B00109268001092690080936F001092AA
:1002B0006C008AB380658ABBDC9ADE9AD69888EA9D
:1002C0008DB980EF8EB90895909169009F5F9F70FE
:1002D000209168009217E1F3E92FF0E0E059FF4F19
:1002E000808390936900089590916B0080916A00DB
:1002F0009817D1F380916A008F5F8F7080936A00A6
:10030000E0916A00F0E0E058FF4F8081089520916D
:100310006B0090916A0081E0291301C080E008958C
:100320001F920F920FB60F9211248F9310926E00AE
:1003300010926D00D698CC9B02C0CE9BFCCFCE997C
:1003400002C088EF01C088EA8DB980EF8EB98F9125
:100350000F900FBE0F901F9018951F920F920FB61F
:100360000F9211242F933F934F935F936F937F933B
:100370008F939F93AF93BF93EF93FF9380916D0003
:1003800090916E008230910509F446C030F40097D8
:1003900069F0019709F069C021C08430910509F422
:1003A00044C0C8F0059709F060C048C08FB18823E9
:1003B00031F08FB1869590916F0089132AC0E0913A
:1003C0009000F0919100309709F00995789B43C017
:1003D00081E090E042C08FB181111BC09091690013
:1003E000809168009817A9F0809168008F5F8F70E6
:1003F00080936800E0916800F0E0E059FF4F808151
:100400008FB982E090E090936E0080936D00D69A51
:1004100013C088EA8DB910C083E090E090936E001D
:1004200080936D00D6981FB81EC085E090E0909331
:100430006E0080936D00D69880E716C080916B00A7
:100440008F5F8F7080936B00E0916B008FB1F0E055
:10045000E058FF4F808384E090E090936E0080939B
:100460006D001FB8D69A8EE78EB9FF91EF91BF91BC
:10047000AF919F918F917F916F915F914F913F913C
:100480002F910F900FBE0F901F901895F894FFCFEB
:040490004B002201FA
:00000001FF
